{
  "_format": "hh-sol-artifact-1",
  "contractName": "AstroNFT",
  "sourceName": "contracts/AstroNFT.sol",
  "abi": [
    {
      "inputs": [],
      "stateMutability": "nonpayable",
      "type": "constructor"
    },
    {
      "anonymous": false,
      "inputs": [
        {
          "indexed": true,
          "internalType": "address",
          "name": "owner",
          "type": "address"
        },
        {
          "indexed": true,
          "internalType": "address",
          "name": "approved",
          "type": "address"
        },
        {
          "indexed": true,
          "internalType": "uint256",
          "name": "tokenId",
          "type": "uint256"
        }
      ],
      "name": "Approval",
      "type": "event"
    },
    {
      "anonymous": false,
      "inputs": [
        {
          "indexed": true,
          "internalType": "address",
          "name": "owner",
          "type": "address"
        },
        {
          "indexed": true,
          "internalType": "address",
          "name": "operator",
          "type": "address"
        },
        {
          "indexed": false,
          "internalType": "bool",
          "name": "approved",
          "type": "bool"
        }
      ],
      "name": "ApprovalForAll",
      "type": "event"
    },
    {
      "anonymous": false,
      "inputs": [
        {
          "indexed": false,
          "internalType": "address",
          "name": "sender",
          "type": "address"
        },
        {
          "indexed": false,
          "internalType": "uint256",
          "name": "tokenId",
          "type": "uint256"
        }
      ],
      "name": "NewAstroNFTMinted",
      "type": "event"
    },
    {
      "anonymous": false,
      "inputs": [
        {
          "indexed": true,
          "internalType": "address",
          "name": "from",
          "type": "address"
        },
        {
          "indexed": true,
          "internalType": "address",
          "name": "to",
          "type": "address"
        },
        {
          "indexed": true,
          "internalType": "uint256",
          "name": "tokenId",
          "type": "uint256"
        }
      ],
      "name": "Transfer",
      "type": "event"
    },
    {
      "inputs": [
        {
          "internalType": "address",
          "name": "to",
          "type": "address"
        },
        {
          "internalType": "uint256",
          "name": "tokenId",
          "type": "uint256"
        }
      ],
      "name": "approve",
      "outputs": [],
      "stateMutability": "nonpayable",
      "type": "function"
    },
    {
      "inputs": [
        {
          "internalType": "address",
          "name": "owner",
          "type": "address"
        }
      ],
      "name": "balanceOf",
      "outputs": [
        {
          "internalType": "uint256",
          "name": "",
          "type": "uint256"
        }
      ],
      "stateMutability": "view",
      "type": "function"
    },
    {
      "inputs": [
        {
          "internalType": "uint256",
          "name": "tokenId",
          "type": "uint256"
        }
      ],
      "name": "getApproved",
      "outputs": [
        {
          "internalType": "address",
          "name": "",
          "type": "address"
        }
      ],
      "stateMutability": "view",
      "type": "function"
    },
    {
      "inputs": [
        {
          "internalType": "address",
          "name": "owner",
          "type": "address"
        },
        {
          "internalType": "address",
          "name": "operator",
          "type": "address"
        }
      ],
      "name": "isApprovedForAll",
      "outputs": [
        {
          "internalType": "bool",
          "name": "",
          "type": "bool"
        }
      ],
      "stateMutability": "view",
      "type": "function"
    },
    {
      "inputs": [],
      "name": "mintAnAstro",
      "outputs": [],
      "stateMutability": "nonpayable",
      "type": "function"
    },
    {
      "inputs": [],
      "name": "name",
      "outputs": [
        {
          "internalType": "string",
          "name": "",
          "type": "string"
        }
      ],
      "stateMutability": "view",
      "type": "function"
    },
    {
      "inputs": [
        {
          "internalType": "uint256",
          "name": "tokenId",
          "type": "uint256"
        }
      ],
      "name": "ownerOf",
      "outputs": [
        {
          "internalType": "address",
          "name": "",
          "type": "address"
        }
      ],
      "stateMutability": "view",
      "type": "function"
    },
    {
      "inputs": [
        {
          "internalType": "uint256",
          "name": "tokenId",
          "type": "uint256"
        }
      ],
      "name": "pickRandomCountry",
      "outputs": [
        {
          "internalType": "string",
          "name": "",
          "type": "string"
        }
      ],
      "stateMutability": "view",
      "type": "function"
    },
    {
      "inputs": [
        {
          "internalType": "uint256",
          "name": "tokenId",
          "type": "uint256"
        }
      ],
      "name": "pickRandomRocket",
      "outputs": [
        {
          "internalType": "string",
          "name": "",
          "type": "string"
        }
      ],
      "stateMutability": "view",
      "type": "function"
    },
    {
      "inputs": [
        {
          "internalType": "uint256",
          "name": "tokenId",
          "type": "uint256"
        }
      ],
      "name": "pickRandomTool",
      "outputs": [
        {
          "internalType": "string",
          "name": "",
          "type": "string"
        }
      ],
      "stateMutability": "view",
      "type": "function"
    },
    {
      "inputs": [
        {
          "internalType": "address",
          "name": "from",
          "type": "address"
        },
        {
          "internalType": "address",
          "name": "to",
          "type": "address"
        },
        {
          "internalType": "uint256",
          "name": "tokenId",
          "type": "uint256"
        }
      ],
      "name": "safeTransferFrom",
      "outputs": [],
      "stateMutability": "nonpayable",
      "type": "function"
    },
    {
      "inputs": [
        {
          "internalType": "address",
          "name": "from",
          "type": "address"
        },
        {
          "internalType": "address",
          "name": "to",
          "type": "address"
        },
        {
          "internalType": "uint256",
          "name": "tokenId",
          "type": "uint256"
        },
        {
          "internalType": "bytes",
          "name": "_data",
          "type": "bytes"
        }
      ],
      "name": "safeTransferFrom",
      "outputs": [],
      "stateMutability": "nonpayable",
      "type": "function"
    },
    {
      "inputs": [
        {
          "internalType": "address",
          "name": "operator",
          "type": "address"
        },
        {
          "internalType": "bool",
          "name": "approved",
          "type": "bool"
        }
      ],
      "name": "setApprovalForAll",
      "outputs": [],
      "stateMutability": "nonpayable",
      "type": "function"
    },
    {
      "inputs": [
        {
          "internalType": "bytes4",
          "name": "interfaceId",
          "type": "bytes4"
        }
      ],
      "name": "supportsInterface",
      "outputs": [
        {
          "internalType": "bool",
          "name": "",
          "type": "bool"
        }
      ],
      "stateMutability": "view",
      "type": "function"
    },
    {
      "inputs": [],
      "name": "symbol",
      "outputs": [
        {
          "internalType": "string",
          "name": "",
          "type": "string"
        }
      ],
      "stateMutability": "view",
      "type": "function"
    },
    {
      "inputs": [
        {
          "internalType": "uint256",
          "name": "tokenId",
          "type": "uint256"
        }
      ],
      "name": "tokenURI",
      "outputs": [
        {
          "internalType": "string",
          "name": "",
          "type": "string"
        }
      ],
      "stateMutability": "view",
      "type": "function"
    },
    {
      "inputs": [
        {
          "internalType": "address",
          "name": "from",
          "type": "address"
        },
        {
          "internalType": "address",
          "name": "to",
          "type": "address"
        },
        {
          "internalType": "uint256",
          "name": "tokenId",
          "type": "uint256"
        }
      ],
      "name": "transferFrom",
      "outputs": [],
      "stateMutability": "nonpayable",
      "type": "function"
    }
  ],
  "bytecode": "0x60806040526040518061016001604052806101348152602001620042ef610134913960089080519060200190620000389291906200067e565b506040518060c001604052806040518060400160405280600781526020017f424c41535445520000000000000000000000000000000000000000000000000081525081526020016040518060400160405280600681526020017f534849454c44000000000000000000000000000000000000000000000000000081525081526020016040518060400160405280600d81526020017f475241504c494e4720484f4f4b0000000000000000000000000000000000000081525081526020016040518060400160405280600481526020017f464c41470000000000000000000000000000000000000000000000000000000081525081526020016040518060400160405280600681526020017f57454c444552000000000000000000000000000000000000000000000000000081525081526020016040518060400160405280600681526020017f464c4f57455200000000000000000000000000000000000000000000000000008152508152506009906006620001b69291906200070f565b506040518060c001604052806040518060400160405280600881526020017f46414c434f4e203900000000000000000000000000000000000000000000000081525081526020016040518060400160405280600881526020017f535441525348495000000000000000000000000000000000000000000000000081525081526020016040518060400160405280600881526020017f4e455720474c454e00000000000000000000000000000000000000000000000081525081526020016040518060400160405280600b81526020017f4e4557205348455041524400000000000000000000000000000000000000000081525081526020016040518060400160405280600681526020017f445241474f4e000000000000000000000000000000000000000000000000000081525081526020016040518060400160405280600c81526020017f46414c434f4e2048454156590000000000000000000000000000000000000000815250815250600a906006620003349291906200070f565b506040518060c001604052806040518060400160405280600381526020017f555341000000000000000000000000000000000000000000000000000000000081525081526020016040518060400160405280600581526020017f525553534100000000000000000000000000000000000000000000000000000081525081526020016040518060400160405280600581526020017f4348494e4100000000000000000000000000000000000000000000000000000081525081526020016040518060400160405280600681526020017f43414e414441000000000000000000000000000000000000000000000000000081525081526020016040518060400160405280600681526020017f4652414e4345000000000000000000000000000000000000000000000000000081525081526020016040518060400160405280600781526020017f454e474c414e4400000000000000000000000000000000000000000000000000815250815250600b906006620004b29291906200070f565b50348015620004c057600080fd5b506040518060400160405280600981526020017f417374726f734e465400000000000000000000000000000000000000000000008152506040518060400160405280600581526020017f415354524f0000000000000000000000000000000000000000000000000000008152508160009080519060200190620005459291906200067e565b5080600190805190602001906200055e9291906200067e565b505050620005ac6040518060400160405280601381526020017f417374726f73204e465420436f6e747261637400000000000000000000000000815250620005b260201b620011ba1760201c565b62000930565b6200065281604051602401620005c9919062000844565b6040516020818303038152906040527f41304fac000000000000000000000000000000000000000000000000000000007bffffffffffffffffffffffffffffffffffffffffffffffffffffffff19166020820180517bffffffffffffffffffffffffffffffffffffffffffffffffffffffff83818316178352505050506200065560201b60201c565b50565b60008151905060006a636f6e736f6c652e6c6f679050602083016000808483855afa5050505050565b8280546200068c90620008ba565b90600052602060002090601f016020900481019282620006b05760008555620006fc565b82601f10620006cb57805160ff1916838001178555620006fc565b82800160010185558215620006fc579182015b82811115620006fb578251825591602001919060010190620006de565b5b5090506200070b919062000776565b5090565b82805482825590600052602060002090810192821562000763579160200282015b8281111562000762578251829080519060200190620007519291906200067e565b509160200191906001019062000730565b5b50905062000772919062000795565b5090565b5b808211156200079157600081600090555060010162000777565b5090565b5b80821115620007b95760008181620007af9190620007bd565b5060010162000796565b5090565b508054620007cb90620008ba565b6000825580601f10620007df575062000800565b601f016020900490600052602060002090810190620007ff919062000776565b5b50565b6000620008108262000868565b6200081c818562000873565b93506200082e81856020860162000884565b62000839816200091f565b840191505092915050565b6000602082019050818103600083015262000860818462000803565b905092915050565b600081519050919050565b600082825260208201905092915050565b60005b83811015620008a457808201518184015260208101905062000887565b83811115620008b4576000848401525b50505050565b60006002820490506001821680620008d357607f821691505b60208210811415620008ea57620008e9620008f0565b5b50919050565b7f4e487b7100000000000000000000000000000000000000000000000000000000600052602260045260246000fd5b6000601f19601f8301169050919050565b6139af80620009406000396000f3fe608060405234801561001057600080fd5b506004361061010b5760003560e01c80636352211e116100a2578063a22cb46511610071578063a22cb465146102f0578063b88d4fde1461030c578063bae93a1a14610328578063c87b56dd14610332578063e985e9c5146103625761010b565b80636352211e1461024257806370a08231146102725780638adb8da2146102a257806395d89b41146102d25761010b565b806323b872dd116100de57806323b872dd146101aa57806342842e0e146101c657806354a35694146101e25780635575a192146102125761010b565b806301ffc9a71461011057806306fdde0314610140578063081812fc1461015e578063095ea7b31461018e575b600080fd5b61012a6004803603810190610125919061244d565b610392565b6040516101379190612bc0565b60405180910390f35b610148610474565b6040516101559190612bdb565b60405180910390f35b6101786004803603810190610173919061249f565b610506565b6040516101859190612b30565b60405180910390f35b6101a860048036038101906101a39190612411565b61058b565b005b6101c460048036038101906101bf919061230b565b6106a3565b005b6101e060048036038101906101db919061230b565b610703565b005b6101fc60048036038101906101f7919061249f565b610723565b6040516102099190612bdb565b60405180910390f35b61022c6004803603810190610227919061249f565b610841565b6040516102399190612bdb565b60405180910390f35b61025c6004803603810190610257919061249f565b61095f565b6040516102699190612b30565b60405180910390f35b61028c600480360381019061028791906122a6565b610a11565b6040516102999190612e3b565b60405180910390f35b6102bc60048036038101906102b7919061249f565b610ac9565b6040516102c99190612bdb565b60405180910390f35b6102da610be7565b6040516102e79190612bdb565b60405180910390f35b61030a600480360381019061030591906123d5565b610c79565b005b6103266004803603810190610321919061235a565b610dfa565b005b610330610e5c565b005b61034c6004803603810190610347919061249f565b610fd4565b6040516103599190612bdb565b60405180910390f35b61037c600480360381019061037791906122cf565b611126565b6040516103899190612bc0565b60405180910390f35b60007f80ac58cd000000000000000000000000000000000000000000000000000000007bffffffffffffffffffffffffffffffffffffffffffffffffffffffff1916827bffffffffffffffffffffffffffffffffffffffffffffffffffffffff1916148061045d57507f5b5e139f000000000000000000000000000000000000000000000000000000007bffffffffffffffffffffffffffffffffffffffffffffffffffffffff1916827bffffffffffffffffffffffffffffffffffffffffffffffffffffffff1916145b8061046d575061046c82611253565b5b9050919050565b606060008054610483906130cf565b80601f01602080910402602001604051908101604052809291908181526020018280546104af906130cf565b80156104fc5780601f106104d1576101008083540402835291602001916104fc565b820191906000526020600020905b8154815290600101906020018083116104df57829003601f168201915b5050505050905090565b6000610511826112bd565b610550576040517f08c379a000000000000000000000000000000000000000000000000000000000815260040161054790612d9b565b60405180910390fd5b6004600083815260200190815260200160002060009054906101000a900473ffffffffffffffffffffffffffffffffffffffff169050919050565b60006105968261095f565b90508073ffffffffffffffffffffffffffffffffffffffff168373ffffffffffffffffffffffffffffffffffffffff161415610607576040517f08c379a00000000000000000000000000000000000000000000000000000000081526004016105fe90612dfb565b60405180910390fd5b8073ffffffffffffffffffffffffffffffffffffffff16610626611329565b73ffffffffffffffffffffffffffffffffffffffff16148061065557506106548161064f611329565b611126565b5b610694576040517f08c379a000000000000000000000000000000000000000000000000000000000815260040161068b90612cdb565b60405180910390fd5b61069e8383611331565b505050565b6106b46106ae611329565b826113ea565b6106f3576040517f08c379a00000000000000000000000000000000000000000000000000000000081526004016106ea90612e1b565b60405180910390fd5b6106fe8383836114c8565b505050565b61071e83838360405180602001604052806000815250610dfa565b505050565b6060600061075761073384611724565b6040516020016107439190612a85565b6040516020818303038152906040526118d1565b9050600a805490508161076a919061317b565b9050600a81815481106107a6577f4e487b7100000000000000000000000000000000000000000000000000000000600052603260045260246000fd5b9060005260206000200180546107bb906130cf565b80601f01602080910402602001604051908101604052809291908181526020018280546107e7906130cf565b80156108345780601f1061080957610100808354040283529160200191610834565b820191906000526020600020905b81548152906001019060200180831161081757829003601f168201915b5050505050915050919050565b6060600061087561085184611724565b6040516020016108619190612aa7565b6040516020818303038152906040526118d1565b905060098054905081610888919061317b565b9050600981815481106108c4577f4e487b7100000000000000000000000000000000000000000000000000000000600052603260045260246000fd5b9060005260206000200180546108d9906130cf565b80601f0160208091040260200160405190810160405280929190818152602001828054610905906130cf565b80156109525780601f1061092757610100808354040283529160200191610952565b820191906000526020600020905b81548152906001019060200180831161093557829003601f168201915b5050505050915050919050565b6000806002600084815260200190815260200160002060009054906101000a900473ffffffffffffffffffffffffffffffffffffffff169050600073ffffffffffffffffffffffffffffffffffffffff168173ffffffffffffffffffffffffffffffffffffffff161415610a08576040517f08c379a00000000000000000000000000000000000000000000000000000000081526004016109ff90612d1b565b60405180910390fd5b80915050919050565b60008073ffffffffffffffffffffffffffffffffffffffff168273ffffffffffffffffffffffffffffffffffffffff161415610a82576040517f08c379a0000000000000000000000000000000000000000000000000000000008152600401610a7990612cfb565b60405180910390fd5b600360008373ffffffffffffffffffffffffffffffffffffffff1673ffffffffffffffffffffffffffffffffffffffff168152602001908152602001600020549050919050565b60606000610afd610ad984611724565b604051602001610ae99190612a63565b6040516020818303038152906040526118d1565b9050600b8054905081610b10919061317b565b9050600b8181548110610b4c577f4e487b7100000000000000000000000000000000000000000000000000000000600052603260045260246000fd5b906000526020600020018054610b61906130cf565b80601f0160208091040260200160405190810160405280929190818152602001828054610b8d906130cf565b8015610bda5780601f10610baf57610100808354040283529160200191610bda565b820191906000526020600020905b815481529060010190602001808311610bbd57829003601f168201915b5050505050915050919050565b606060018054610bf6906130cf565b80601f0160208091040260200160405190810160405280929190818152602001828054610c22906130cf565b8015610c6f5780601f10610c4457610100808354040283529160200191610c6f565b820191906000526020600020905b815481529060010190602001808311610c5257829003601f168201915b5050505050905090565b610c81611329565b73ffffffffffffffffffffffffffffffffffffffff168273ffffffffffffffffffffffffffffffffffffffff161415610cef576040517f08c379a0000000000000000000000000000000000000000000000000000000008152600401610ce690612c9b565b60405180910390fd5b8060056000610cfc611329565b73ffffffffffffffffffffffffffffffffffffffff1673ffffffffffffffffffffffffffffffffffffffff16815260200190815260200160002060008473ffffffffffffffffffffffffffffffffffffffff1673ffffffffffffffffffffffffffffffffffffffff16815260200190815260200160002060006101000a81548160ff0219169083151502179055508173ffffffffffffffffffffffffffffffffffffffff16610da9611329565b73ffffffffffffffffffffffffffffffffffffffff167f17307eab39ab6107e8899845ad3d59bd9653f200f220920489ca2b5937696c3183604051610dee9190612bc0565b60405180910390a35050565b610e0b610e05611329565b836113ea565b610e4a576040517f08c379a0000000000000000000000000000000000000000000000000000000008152600401610e4190612e1b565b60405180910390fd5b610e5684848484611904565b50505050565b6000610e686007611960565b90506000610e7582610841565b90506000610e8283610723565b90506000610e8f84610ac9565b90506000838383604051602001610ea8939291906129bd565b604051602081830303815290604052905060006008858585604051602001610ed39493929190612a04565b60405160208183030381529060405290506000610f1883610ef38461196e565b604051602001610f04929190612ac9565b60405160208183030381529060405261196e565b9050610f23816111ba565b610f2c826111ba565b600081604051602001610f3f9190612b0e565b6040516020818303038152906040529050610f5a3389611b2c565b610f648882611b4a565b610f87604051806060016040528060298152602001613951602991398933611bbe565b610f916007611c5d565b7fdad04fb583dfcd33e125e4eb3e91e1a7714e436fcf8253c69c39219e7aee27a03389604051610fc2929190612b97565b60405180910390a15050505050505050565b6060610fdf826112bd565b61101e576040517f08c379a000000000000000000000000000000000000000000000000000000000815260040161101590612d7b565b60405180910390fd5b600060066000848152602001908152602001600020805461103e906130cf565b80601f016020809104026020016040519081016040528092919081815260200182805461106a906130cf565b80156110b75780601f1061108c576101008083540402835291602001916110b7565b820191906000526020600020905b81548152906001019060200180831161109a57829003601f168201915b5050505050905060006110c8611c73565b90506000815114156110de578192505050611121565b6000825111156111135780826040516020016110fb929190612999565b60405160208183030381529060405292505050611121565b61111c84611c8a565b925050505b919050565b6000600560008473ffffffffffffffffffffffffffffffffffffffff1673ffffffffffffffffffffffffffffffffffffffff16815260200190815260200160002060008373ffffffffffffffffffffffffffffffffffffffff1673ffffffffffffffffffffffffffffffffffffffff16815260200190815260200160002060009054906101000a900460ff16905092915050565b611250816040516024016111ce9190612bdb565b6040516020818303038152906040527f41304fac000000000000000000000000000000000000000000000000000000007bffffffffffffffffffffffffffffffffffffffffffffffffffffffff19166020820180517bffffffffffffffffffffffffffffffffffffffffffffffffffffffff8381831617835250505050611d31565b50565b60007f01ffc9a7000000000000000000000000000000000000000000000000000000007bffffffffffffffffffffffffffffffffffffffffffffffffffffffff1916827bffffffffffffffffffffffffffffffffffffffffffffffffffffffff1916149050919050565b60008073ffffffffffffffffffffffffffffffffffffffff166002600084815260200190815260200160002060009054906101000a900473ffffffffffffffffffffffffffffffffffffffff1673ffffffffffffffffffffffffffffffffffffffff1614159050919050565b600033905090565b816004600083815260200190815260200160002060006101000a81548173ffffffffffffffffffffffffffffffffffffffff021916908373ffffffffffffffffffffffffffffffffffffffff160217905550808273ffffffffffffffffffffffffffffffffffffffff166113a48361095f565b73ffffffffffffffffffffffffffffffffffffffff167f8c5be1e5ebec7d5bd14f71427d1e84f3dd0314c0f7b2291e5b200ac8c7c3b92560405160405180910390a45050565b60006113f5826112bd565b611434576040517f08c379a000000000000000000000000000000000000000000000000000000000815260040161142b90612cbb565b60405180910390fd5b600061143f8361095f565b90508073ffffffffffffffffffffffffffffffffffffffff168473ffffffffffffffffffffffffffffffffffffffff1614806114ae57508373ffffffffffffffffffffffffffffffffffffffff1661149684610506565b73ffffffffffffffffffffffffffffffffffffffff16145b806114bf57506114be8185611126565b5b91505092915050565b8273ffffffffffffffffffffffffffffffffffffffff166114e88261095f565b73ffffffffffffffffffffffffffffffffffffffff161461153e576040517f08c379a000000000000000000000000000000000000000000000000000000000815260040161153590612dbb565b60405180910390fd5b600073ffffffffffffffffffffffffffffffffffffffff168273ffffffffffffffffffffffffffffffffffffffff1614156115ae576040517f08c379a00000000000000000000000000000000000000000000000000000000081526004016115a590612c7b565b60405180910390fd5b6115b9838383611d5a565b6115c4600082611331565b6001600360008573ffffffffffffffffffffffffffffffffffffffff1673ffffffffffffffffffffffffffffffffffffffff16815260200190815260200160002060008282546116149190612fe5565b925050819055506001600360008473ffffffffffffffffffffffffffffffffffffffff1673ffffffffffffffffffffffffffffffffffffffff168152602001908152602001600020600082825461166b9190612f04565b92505081905550816002600083815260200190815260200160002060006101000a81548173ffffffffffffffffffffffffffffffffffffffff021916908373ffffffffffffffffffffffffffffffffffffffff160217905550808273ffffffffffffffffffffffffffffffffffffffff168473ffffffffffffffffffffffffffffffffffffffff167fddf252ad1be2c89b69c2b068fc378daa952ba7f163c4a11628f55a4df523b3ef60405160405180910390a4505050565b6060600082141561176c576040518060400160405280600181526020017f300000000000000000000000000000000000000000000000000000000000000081525090506118cc565b600082905060005b6000821461179e57808061178790613132565b915050600a826117979190612f5a565b9150611774565b60008167ffffffffffffffff8111156117e0577f4e487b7100000000000000000000000000000000000000000000000000000000600052604160045260246000fd5b6040519080825280601f01601f1916602001820160405280156118125781602001600182028036833780820191505090505b5090505b600085146118c55760018261182b9190612fe5565b9150600a8561183a919061317b565b60306118469190612f04565b60f81b818381518110611882577f4e487b7100000000000000000000000000000000000000000000000000000000600052603260045260246000fd5b60200101907effffffffffffffffffffffffffffffffffffffffffffffffffffffffffffff1916908160001a905350600a856118be9190612f5a565b9450611816565b8093505050505b919050565b6000816040516020016118e49190612982565b6040516020818303038152906040528051906020012060001c9050919050565b61190f8484846114c8565b61191b84848484611d5f565b61195a576040517f08c379a000000000000000000000000000000000000000000000000000000000815260040161195190612c3b565b60405180910390fd5b50505050565b600081600001549050919050565b606060008251905060008114156119975760405180602001604052806000815250915050611b27565b600060036002836119a89190612f04565b6119b29190612f5a565b60046119be9190612f8b565b905060006020826119cf9190612f04565b67ffffffffffffffff811115611a0e577f4e487b7100000000000000000000000000000000000000000000000000000000600052604160045260246000fd5b6040519080825280601f01601f191660200182016040528015611a405781602001600182028036833780820191505090505b5090506000604051806060016040528060408152602001613911604091399050600181016020830160005b86811015611ae45760038101905062ffffff818a015116603f8160121c168401518060081b905060ff603f83600c1c1686015116810190508060081b905060ff603f8360061c1686015116810190508060081b905060ff603f831686015116810190508060e01b90508084526004840193505050611a6b565b506003860660018114611afe5760028114611b0e57611b19565b613d3d60f01b6002830352611b19565b603d60f81b60018303525b508484525050819450505050505b919050565b611b46828260405180602001604052806000815250611ef6565b5050565b611b53826112bd565b611b92576040517f08c379a0000000000000000000000000000000000000000000000000000000008152600401611b8990612d3b565b60405180910390fd5b80600660008481526020019081526020016000209080519060200190611bb9929190612132565b505050565b611c58838383604051602401611bd693929190612bfd565b6040516020818303038152906040527fe3849f79000000000000000000000000000000000000000000000000000000007bffffffffffffffffffffffffffffffffffffffffffffffffffffffff19166020820180517bffffffffffffffffffffffffffffffffffffffffffffffffffffffff8381831617835250505050611d31565b505050565b6001816000016000828254019250508190555050565b606060405180602001604052806000815250905090565b6060611c95826112bd565b611cd4576040517f08c379a0000000000000000000000000000000000000000000000000000000008152600401611ccb90612ddb565b60405180910390fd5b6000611cde611c73565b90506000815111611cfe5760405180602001604052806000815250611d29565b80611d0884611724565b604051602001611d19929190612999565b6040516020818303038152906040525b915050919050565b60008151905060006a636f6e736f6c652e6c6f679050602083016000808483855afa5050505050565b505050565b6000611d808473ffffffffffffffffffffffffffffffffffffffff16611f51565b15611ee9578373ffffffffffffffffffffffffffffffffffffffff1663150b7a02611da9611329565b8786866040518563ffffffff1660e01b8152600401611dcb9493929190612b4b565b602060405180830381600087803b158015611de557600080fd5b505af1925050508015611e1657506040513d601f19601f82011682018060405250810190611e139190612476565b60015b611e99573d8060008114611e46576040519150601f19603f3d011682016040523d82523d6000602084013e611e4b565b606091505b50600081511415611e91576040517f08c379a0000000000000000000000000000000000000000000000000000000008152600401611e8890612c3b565b60405180910390fd5b805181602001fd5b63150b7a0260e01b7bffffffffffffffffffffffffffffffffffffffffffffffffffffffff1916817bffffffffffffffffffffffffffffffffffffffffffffffffffffffff191614915050611eee565b600190505b949350505050565b611f008383611f64565b611f0d6000848484611d5f565b611f4c576040517f08c379a0000000000000000000000000000000000000000000000000000000008152600401611f4390612c3b565b60405180910390fd5b505050565b600080823b905060008111915050919050565b600073ffffffffffffffffffffffffffffffffffffffff168273ffffffffffffffffffffffffffffffffffffffff161415611fd4576040517f08c379a0000000000000000000000000000000000000000000000000000000008152600401611fcb90612d5b565b60405180910390fd5b611fdd816112bd565b1561201d576040517f08c379a000000000000000000000000000000000000000000000000000000000815260040161201490612c5b565b60405180910390fd5b61202960008383611d5a565b6001600360008473ffffffffffffffffffffffffffffffffffffffff1673ffffffffffffffffffffffffffffffffffffffff16815260200190815260200160002060008282546120799190612f04565b92505081905550816002600083815260200190815260200160002060006101000a81548173ffffffffffffffffffffffffffffffffffffffff021916908373ffffffffffffffffffffffffffffffffffffffff160217905550808273ffffffffffffffffffffffffffffffffffffffff16600073ffffffffffffffffffffffffffffffffffffffff167fddf252ad1be2c89b69c2b068fc378daa952ba7f163c4a11628f55a4df523b3ef60405160405180910390a45050565b82805461213e906130cf565b90600052602060002090601f01602090048101928261216057600085556121a7565b82601f1061217957805160ff19168380011785556121a7565b828001600101855582156121a7579182015b828111156121a657825182559160200191906001019061218b565b5b5090506121b491906121b8565b5090565b5b808211156121d15760008160009055506001016121b9565b5090565b60006121e86121e384612e7b565b612e56565b90508281526020810184848401111561220057600080fd5b61220b84828561308d565b509392505050565b600081359050612222816138b4565b92915050565b600081359050612237816138cb565b92915050565b60008135905061224c816138e2565b92915050565b600081519050612261816138e2565b92915050565b600082601f83011261227857600080fd5b81356122888482602086016121d5565b91505092915050565b6000813590506122a0816138f9565b92915050565b6000602082840312156122b857600080fd5b60006122c684828501612213565b91505092915050565b600080604083850312156122e257600080fd5b60006122f085828601612213565b925050602061230185828601612213565b9150509250929050565b60008060006060848603121561232057600080fd5b600061232e86828701612213565b935050602061233f86828701612213565b925050604061235086828701612291565b9150509250925092565b6000806000806080858703121561237057600080fd5b600061237e87828801612213565b945050602061238f87828801612213565b93505060406123a087828801612291565b925050606085013567ffffffffffffffff8111156123bd57600080fd5b6123c987828801612267565b91505092959194509250565b600080604083850312156123e857600080fd5b60006123f685828601612213565b925050602061240785828601612228565b9150509250929050565b6000806040838503121561242457600080fd5b600061243285828601612213565b925050602061244385828601612291565b9150509250929050565b60006020828403121561245f57600080fd5b600061246d8482850161223d565b91505092915050565b60006020828403121561248857600080fd5b600061249684828501612252565b91505092915050565b6000602082840312156124b157600080fd5b60006124bf84828501612291565b91505092915050565b6124d181613019565b82525050565b6124e08161302b565b82525050565b60006124f182612ec1565b6124fb8185612ed7565b935061250b81856020860161309c565b61251481613268565b840191505092915050565b600061252a82612ecc565b6125348185612ee8565b935061254481856020860161309c565b61254d81613268565b840191505092915050565b600061256382612ecc565b61256d8185612ef9565b935061257d81856020860161309c565b80840191505092915050565b60008154612596816130cf565b6125a08186612ef9565b945060018216600081146125bb57600181146125cc576125ff565b60ff198316865281860193506125ff565b6125d585612eac565b60005b838110156125f7578154818901526001820191506020810190506125d8565b838801955050505b50505092915050565b6000612615600883612ef9565b915061262082613279565b600882019050919050565b6000612638603283612ee8565b9150612643826132a2565b604082019050919050565b600061265b601c83612ee8565b9150612666826132f1565b602082019050919050565b600061267e602483612ee8565b91506126898261331a565b604082019050919050565b60006126a1601983612ee8565b91506126ac82613369565b602082019050919050565b60006126c4602c83612ee8565b91506126cf82613392565b604082019050919050565b60006126e7600d83612ef9565b91506126f2826133e1565b600d82019050919050565b600061270a600683612ef9565b91506127158261340a565b600682019050919050565b600061272d600183612ef9565b915061273882613433565b600182019050919050565b6000612750605583612ef9565b915061275b8261345c565b605582019050919050565b6000612773603883612ee8565b915061277e826134d1565b604082019050919050565b6000612796602a83612ee8565b91506127a182613520565b604082019050919050565b60006127b9602983612ee8565b91506127c48261356f565b604082019050919050565b60006127dc602e83612ee8565b91506127e7826135be565b604082019050919050565b60006127ff600483612ef9565b915061280a8261360d565b600482019050919050565b6000612822600283612ef9565b915061282d82613636565b600282019050919050565b6000612845602083612ee8565b91506128508261365f565b602082019050919050565b6000612868603183612ee8565b915061287382613688565b604082019050919050565b600061288b602c83612ee8565b9150612896826136d7565b604082019050919050565b60006128ae602983612ee8565b91506128b982613726565b604082019050919050565b60006128d1602f83612ee8565b91506128dc82613775565b604082019050919050565b60006128f4600a83612ef9565b91506128ff826137c4565b600a82019050919050565b6000612917602183612ee8565b9150612922826137ed565b604082019050919050565b600061293a601d83612ef9565b91506129458261383c565b601d82019050919050565b600061295d603183612ee8565b915061296882613865565b604082019050919050565b61297c81613083565b82525050565b600061298e8284612558565b915081905092915050565b60006129a58285612558565b91506129b18284612558565b91508190509392505050565b60006129c98286612558565b91506129d482612720565b91506129e08285612558565b91506129eb82612720565b91506129f78284612558565b9150819050949350505050565b6000612a108287612589565b9150612a1c8286612558565b9150612a2782612720565b9150612a338285612558565b9150612a3e82612720565b9150612a4a8284612558565b9150612a55826126da565b915081905095945050505050565b6000612a6e82612608565b9150612a7a8284612558565b915081905092915050565b6000612a90826126fd565b9150612a9c8284612558565b915081905092915050565b6000612ab2826127f2565b9150612abe8284612558565b915081905092915050565b6000612ad4826128e7565b9150612ae08285612558565b9150612aeb82612743565b9150612af78284612558565b9150612b0282612815565b91508190509392505050565b6000612b198261292d565b9150612b258284612558565b915081905092915050565b6000602082019050612b4560008301846124c8565b92915050565b6000608082019050612b6060008301876124c8565b612b6d60208301866124c8565b612b7a6040830185612973565b8181036060830152612b8c81846124e6565b905095945050505050565b6000604082019050612bac60008301856124c8565b612bb96020830184612973565b9392505050565b6000602082019050612bd560008301846124d7565b92915050565b60006020820190508181036000830152612bf5818461251f565b905092915050565b60006060820190508181036000830152612c17818661251f565b9050612c266020830185612973565b612c3360408301846124c8565b949350505050565b60006020820190508181036000830152612c548161262b565b9050919050565b60006020820190508181036000830152612c748161264e565b9050919050565b60006020820190508181036000830152612c9481612671565b9050919050565b60006020820190508181036000830152612cb481612694565b9050919050565b60006020820190508181036000830152612cd4816126b7565b9050919050565b60006020820190508181036000830152612cf481612766565b9050919050565b60006020820190508181036000830152612d1481612789565b9050919050565b60006020820190508181036000830152612d34816127ac565b9050919050565b60006020820190508181036000830152612d54816127cf565b9050919050565b60006020820190508181036000830152612d7481612838565b9050919050565b60006020820190508181036000830152612d948161285b565b9050919050565b60006020820190508181036000830152612db48161287e565b9050919050565b60006020820190508181036000830152612dd4816128a1565b9050919050565b60006020820190508181036000830152612df4816128c4565b9050919050565b60006020820190508181036000830152612e148161290a565b9050919050565b60006020820190508181036000830152612e3481612950565b9050919050565b6000602082019050612e506000830184612973565b92915050565b6000612e60612e71565b9050612e6c8282613101565b919050565b6000604051905090565b600067ffffffffffffffff821115612e9657612e95613239565b5b612e9f82613268565b9050602081019050919050565b60008190508160005260206000209050919050565b600081519050919050565b600081519050919050565b600082825260208201905092915050565b600082825260208201905092915050565b600081905092915050565b6000612f0f82613083565b9150612f1a83613083565b9250827fffffffffffffffffffffffffffffffffffffffffffffffffffffffffffffffff03821115612f4f57612f4e6131ac565b5b828201905092915050565b6000612f6582613083565b9150612f7083613083565b925082612f8057612f7f6131db565b5b828204905092915050565b6000612f9682613083565b9150612fa183613083565b9250817fffffffffffffffffffffffffffffffffffffffffffffffffffffffffffffffff0483118215151615612fda57612fd96131ac565b5b828202905092915050565b6000612ff082613083565b9150612ffb83613083565b92508282101561300e5761300d6131ac565b5b828203905092915050565b600061302482613063565b9050919050565b60008115159050919050565b60007fffffffff0000000000000000000000000000000000000000000000000000000082169050919050565b600073ffffffffffffffffffffffffffffffffffffffff82169050919050565b6000819050919050565b82818337600083830152505050565b60005b838110156130ba57808201518184015260208101905061309f565b838111156130c9576000848401525b50505050565b600060028204905060018216806130e757607f821691505b602082108114156130fb576130fa61320a565b5b50919050565b61310a82613268565b810181811067ffffffffffffffff8211171561312957613128613239565b5b80604052505050565b600061313d82613083565b91507fffffffffffffffffffffffffffffffffffffffffffffffffffffffffffffffff8214156131705761316f6131ac565b5b600182019050919050565b600061318682613083565b915061319183613083565b9250826131a1576131a06131db565b5b828206905092915050565b7f4e487b7100000000000000000000000000000000000000000000000000000000600052601160045260246000fd5b7f4e487b7100000000000000000000000000000000000000000000000000000000600052601260045260246000fd5b7f4e487b7100000000000000000000000000000000000000000000000000000000600052602260045260246000fd5b7f4e487b7100000000000000000000000000000000000000000000000000000000600052604160045260246000fd5b6000601f19601f8301169050919050565b7f434f554e54524959000000000000000000000000000000000000000000000000600082015250565b7f4552433732313a207472616e7366657220746f206e6f6e20455243373231526560008201527f63656976657220696d706c656d656e7465720000000000000000000000000000602082015250565b7f4552433732313a20746f6b656e20616c7265616479206d696e74656400000000600082015250565b7f4552433732313a207472616e7366657220746f20746865207a65726f2061646460008201527f7265737300000000000000000000000000000000000000000000000000000000602082015250565b7f4552433732313a20617070726f766520746f2063616c6c657200000000000000600082015250565b7f4552433732313a206f70657261746f7220717565727920666f72206e6f6e657860008201527f697374656e7420746f6b656e0000000000000000000000000000000000000000602082015250565b7f3c2f746578743e3c2f7376673e00000000000000000000000000000000000000600082015250565b7f524f434b45540000000000000000000000000000000000000000000000000000600082015250565b7f2000000000000000000000000000000000000000000000000000000000000000600082015250565b7f222c20226465736372697074696f6e223a2022596f7572206578706c6f72657260008201527f20746f207468652073746172732e222c2022696d616765223a2022646174613a60208201527f696d6167652f7376672b786d6c3b6261736536342c0000000000000000000000604082015250565b7f4552433732313a20617070726f76652063616c6c6572206973206e6f74206f7760008201527f6e6572206e6f7220617070726f76656420666f7220616c6c0000000000000000602082015250565b7f4552433732313a2062616c616e636520717565727920666f7220746865207a6560008201527f726f206164647265737300000000000000000000000000000000000000000000602082015250565b7f4552433732313a206f776e657220717565727920666f72206e6f6e657869737460008201527f656e7420746f6b656e0000000000000000000000000000000000000000000000602082015250565b7f45524337323155524953746f726167653a2055524920736574206f66206e6f6e60008201527f6578697374656e7420746f6b656e000000000000000000000000000000000000602082015250565b7f544f4f4c00000000000000000000000000000000000000000000000000000000600082015250565b7f227d000000000000000000000000000000000000000000000000000000000000600082015250565b7f4552433732313a206d696e7420746f20746865207a65726f2061646472657373600082015250565b7f45524337323155524953746f726167653a2055524920717565727920666f722060008201527f6e6f6e6578697374656e7420746f6b656e000000000000000000000000000000602082015250565b7f4552433732313a20617070726f76656420717565727920666f72206e6f6e657860008201527f697374656e7420746f6b656e0000000000000000000000000000000000000000602082015250565b7f4552433732313a207472616e73666572206f6620746f6b656e2074686174206960008201527f73206e6f74206f776e0000000000000000000000000000000000000000000000602082015250565b7f4552433732314d657461646174613a2055524920717565727920666f72206e6f60008201527f6e6578697374656e7420746f6b656e0000000000000000000000000000000000602082015250565b7f7b226e616d65223a202200000000000000000000000000000000000000000000600082015250565b7f4552433732313a20617070726f76616c20746f2063757272656e74206f776e6560008201527f7200000000000000000000000000000000000000000000000000000000000000602082015250565b7f646174613a6170706c69636174696f6e2f6a736f6e3b6261736536342c000000600082015250565b7f4552433732313a207472616e736665722063616c6c6572206973206e6f74206f60008201527f776e6572206e6f7220617070726f766564000000000000000000000000000000602082015250565b6138bd81613019565b81146138c857600080fd5b50565b6138d48161302b565b81146138df57600080fd5b50565b6138eb81613037565b81146138f657600080fd5b50565b61390281613083565b811461390d57600080fd5b5056fe4142434445464748494a4b4c4d4e4f505152535455565758595a6162636465666768696a6b6c6d6e6f707172737475767778797a303132333435363738392b2f4d696e74656420417374726f2077697468206964206f6620257320616e642073656e7420746f202573a2646970667358221220453141448bddced74759e77bfd3a42b2761ae9a23043d4e8943572b61e8b414a64736f6c634300080400333c73766720786d6c6e733d27687474703a2f2f7777772e77332e6f72672f323030302f73766727207072657365727665417370656374526174696f3d27784d696e594d696e206d656574272076696577426f783d273020302033353020333530273e3c7374796c653e2e62617365207b2066696c6c3a2077686974653b20666f6e742d66616d696c793a2073616e732d73657269663b20666f6e742d73697a653a20323470783b207d3c2f7374796c653e3c726563742077696474683d273130302527206865696768743d2731303025272066696c6c3d27626c61636b27202f3e3c7465787420783d273530252720793d273530252720636c6173733d27626173652720646f6d696e616e742d626173656c696e653d276d6964646c652720746578742d616e63686f723d276d6964646c65273e",
  "linkReferences": {},
  "deployedLinkReferences": {}
}